{"abi":[{"type":"constructor","inputs":[{"name":"verifierAddress","type":"address","internalType":"address"},{"name":"tokenAddress","type":"address","internalType":"address"}],"stateMutability":"nonpayable"},{"type":"function","name":"TIER1_PREMIUM","inputs":[],"outputs":[{"name":"","type":"uint256","internalType":"uint256"}],"stateMutability":"view"},{"type":"function","name":"TIER2_PREMIUM","inputs":[],"outputs":[{"name":"","type":"uint256","internalType":"uint256"}],"stateMutability":"view"},{"type":"function","name":"TIER3_PREMIUM","inputs":[],"outputs":[{"name":"","type":"uint256","internalType":"uint256"}],"stateMutability":"view"},{"type":"function","name":"TIER4_PREMIUM","inputs":[],"outputs":[{"name":"","type":"uint256","internalType":"uint256"}],"stateMutability":"view"},{"type":"function","name":"TIER5_PREMIUM","inputs":[],"outputs":[{"name":"","type":"uint256","internalType":"uint256"}],"stateMutability":"view"},{"type":"function","name":"TOKEN_DECIMALS","inputs":[],"outputs":[{"name":"","type":"uint256","internalType":"uint256"}],"stateMutability":"view"},{"type":"function","name":"TOKEN_MULTIPLIER","inputs":[],"outputs":[{"name":"","type":"uint256","internalType":"uint256"}],"stateMutability":"view"},{"type":"function","name":"buyPolicy","inputs":[{"name":"secretCommitment","type":"bytes32","internalType":"bytes32"},{"name":"premium","type":"uint256","internalType":"uint256"}],"outputs":[{"name":"policyId","type":"uint256","internalType":"uint256"}],"stateMutability":"nonpayable"},{"type":"function","name":"claimPayout","inputs":[{"name":"policyId","type":"uint256","internalType":"uint256"},{"name":"commitment","type":"bytes32","internalType":"bytes32"},{"name":"merkleRoot","type":"bytes32","internalType":"bytes32"},{"name":"policyStartDate","type":"uint256","internalType":"uint256"},{"name":"paidPremium","type":"uint256","internalType":"uint256"},{"name":"proofA","type":"uint256[2]","internalType":"uint256[2]"},{"name":"proofB","type":"uint256[2][2]","internalType":"uint256[2][2]"},{"name":"proofC","type":"uint256[2]","internalType":"uint256[2]"},{"name":"publicInputs","type":"uint256[4]","internalType":"uint256[4]"}],"outputs":[],"stateMutability":"nonpayable"},{"type":"function","name":"getQuote","inputs":[],"outputs":[{"name":"tier1Premium","type":"uint256","internalType":"uint256"},{"name":"tier2Premium","type":"uint256","internalType":"uint256"},{"name":"tier3Premium","type":"uint256","internalType":"uint256"},{"name":"tier4Premium","type":"uint256","internalType":"uint256"},{"name":"tier5Premium","type":"uint256","internalType":"uint256"}],"stateMutability":"pure"},{"type":"function","name":"nextPolicyId","inputs":[],"outputs":[{"name":"","type":"uint256","internalType":"uint256"}],"stateMutability":"view"},{"type":"function","name":"paymentToken","inputs":[],"outputs":[{"name":"","type":"address","internalType":"contract Token"}],"stateMutability":"view"},{"type":"function","name":"policies","inputs":[{"name":"","type":"uint256","internalType":"uint256"}],"outputs":[{"name":"secretCommitment","type":"bytes32","internalType":"bytes32"},{"name":"policyPurchaseDate","type":"uint256","internalType":"uint256"},{"name":"paidPremium","type":"uint256","internalType":"uint256"},{"name":"alreadyClaimed","type":"bool","internalType":"bool"},{"name":"buyer","type":"address","internalType":"address"}],"stateMutability":"view"},{"type":"function","name":"priceMerkleRoot","inputs":[],"outputs":[{"name":"","type":"bytes32","internalType":"bytes32"}],"stateMutability":"view"},{"type":"function","name":"priceUpdater","inputs":[],"outputs":[{"name":"","type":"address","internalType":"address"}],"stateMutability":"view"},{"type":"function","name":"updatePriceMerkleRoot","inputs":[{"name":"newRoot","type":"bytes32","internalType":"bytes32"}],"outputs":[],"stateMutability":"nonpayable"},{"type":"function","name":"withdrawPyUSD","inputs":[],"outputs":[],"stateMutability":"nonpayable"},{"type":"function","name":"zkPriceProtectionVerifier","inputs":[],"outputs":[{"name":"","type":"address","internalType":"contract Groth16Verifier"}],"stateMutability":"view"},{"type":"event","name":"ClaimPaid","inputs":[{"name":"policyId","type":"uint256","indexed":false,"internalType":"uint256"},{"name":"recipient","type":"address","indexed":false,"internalType":"address"}],"anonymous":false},{"type":"event","name":"MerkleRootUpdated","inputs":[{"name":"newRoot","type":"bytes32","indexed":false,"internalType":"bytes32"}],"anonymous":false},{"type":"event","name":"PolicyBought","inputs":[{"name":"policyId","type":"uint256","indexed":false,"internalType":"uint256"},{"name":"premium","type":"uint256","indexed":false,"internalType":"uint256"},{"name":"buyer","type":"address","indexed":false,"internalType":"address"}],"anonymous":false}],"bytecode":{"object":"0x608060405260016004553480156013575f80fd5b506040516111ed3803806111ed8339810160408190526030916089565b5f80546001600160a01b039384166001600160a01b031991821617909155600180549290931691811691909117909155600580549091163317905560b5565b80516001600160a01b03811681146084575f80fd5b919050565b5f80604083850312156099575f80fd5b60a083606f565b915060ac60208401606f565b90509250929050565b61112b806100c25f395ff3fe608060405234801561000f575f80fd5b5060043610610110575f3560e01c80638bc19ad61161009e578063d35910da1161006e578063d35910da14610209578063d3e8948314610211578063eceb76391461028d578063f66a620d14610295578063fc612a8d1461029d575f80fd5b80638bc19ad6146101d3578063beb75ee7146101db578063cad0b8db146101ed578063cefd76c2146101f6575f80fd5b80633013ce29116100e45780633013ce29146101705780634e3922a01461019b5780634f6b6fb7146101ae5780635b7f415c146101c357806378f610d4146101cb575f80fd5b8062d062631461011457806309a8deb514610130578063171755b1146101385780632b093fe914610168575b5f80fd5b61011d60035481565b6040519081526020015b60405180910390f35b61011d6102b0565b6101406102ca565b604080519586526020860194909452928401919091526060830152608082015260a001610127565b61011d610353565b600154610183906001600160a01b031681565b6040516001600160a01b039091168152602001610127565b61011d6101a9366004610cc9565b61035f565b6101c16101bc366004610ce9565b6105e8565b005b61011d600681565b61011d610673565b61011d61068a565b5f54610183906001600160a01b031681565b61011d60045481565b6101c1610204366004610df5565b6106a1565b61011d610b36565b61025a61021f366004610ce9565b600260208190525f918252604090912080546001820154928201546003909201549092919060ff81169061010090046001600160a01b031685565b60408051958652602086019490945292840191909152151560608301526001600160a01b0316608082015260a001610127565b6101c1610b4d565b61011d610cb2565b600554610183906001600160a01b031681565b6102bc6006600a610fb2565b6102c7906014610fc4565b81565b5f808080806102db6006600a610fb2565b6102e6906001610fc4565b94506102f46006600a610fb2565b6102ff906003610fc4565b935061030d6006600a610fb2565b610318906007610fc4565b92506103266006600a610fb2565b61033190600d610fc4565b915061033f6006600a610fb2565b61034a906014610fc4565b90509091929394565b6102c76006600a610fb2565b5f61036c6006600a610fb2565b610377906001610fc4565b821480610399575061038b6006600a610fb2565b610396906003610fc4565b82145b806103b957506103ab6006600a610fb2565b6103b6906007610fc4565b82145b806103d957506103cb6006600a610fb2565b6103d690600d610fc4565b82145b806103f957506103eb6006600a610fb2565b6103f6906014610fc4565b82145b6104415760405162461bcd60e51b815260206004820152601460248201527324b73b30b634b210383932b6b4bab6903a34b2b960611b60448201526064015b60405180910390fd5b6001546040516323b872dd60e01b8152336004820152306024820152604481018490526001600160a01b03909116906323b872dd906064016020604051808303815f875af1158015610495573d5f803e3d5ffd5b505050506040513d601f19601f820116820180604052508101906104b99190610fdb565b6105055760405162461bcd60e51b815260206004820152601760248201527f5072656d69756d207472616e73666572206661696c65640000000000000000006044820152606401610438565b60048054905f61051483610ffa565b909155506040805160a0810182528581524260208083019182528284018781525f606080860182815233608088018181528a85526002808852948a9020985189559651600189015593519287019290925590516003909501805494516001600160a01b031661010002610100600160a81b0319961515969096166001600160a81b031990951694909417949094179092558351858152908101879052928301529192507fd826b4efbfc668efaed1046649de593736793dca86cfd96cf23d85586a70642c910160405180910390a192915050565b6005546001600160a01b031633146106385760405162461bcd60e51b815260206004820152601360248201527213db9b1e481bdc9858db1948185b1b1bddd959606a1b6044820152606401610438565b60038190556040518181527f90004c04698bc3322499a575ed3752dd4abf33e0a7294c06a787a0fe01bea9419060200160405180910390a150565b61067f6006600a610fb2565b6102c7906001610fc4565b6106966006600a610fb2565b6102c7906007610fc4565b5f898152600260205260409020600381015461010090046001600160a01b03166107055760405162461bcd60e51b8152602060048201526015602482015274141bdb1a58de48191bd95cc81b9bdd08195e1a5cdd605a1b6044820152606401610438565b600381015460ff161561074c5760405162461bcd60e51b815260206004820152600f60248201526e105b1c9958591e4818db185a5b5959608a1b6044820152606401610438565b600381015461010090046001600160a01b0316331461079f5760405162461bcd60e51b815260206004820152600f60248201526e4e6f7420796f757220706f6c69637960881b6044820152606401610438565b805489146107e25760405162461bcd60e51b815260206004820152601060248201526f15dc9bdb99c818dbdb5b5a5d1b595b9d60821b6044820152606401610438565b87600354146108275760405162461bcd60e51b815260206004820152601160248201527015dc9bdb99c81b595c9adb19481c9bdbdd607a1b6044820152606401610438565b868160010154146108675760405162461bcd60e51b815260206004820152600a60248201526957726f6e67206461746560b01b6044820152606401610438565b858160020154146108aa5760405162461bcd60e51b815260206004820152600d60248201526c57726f6e67207072656d69756d60981b6044820152606401610438565b5f54604051635fe8c13b60e01b81526001600160a01b0390911690635fe8c13b906108df90889088908890889060040161103a565b602060405180830381865afa1580156108fa573d5f803e3d5ffd5b505050506040513d601f19601f8201168201806040525081019061091e9190610fdb565b61095a5760405162461bcd60e51b815260206004820152600d60248201526c24b73b30b634b210383937b7b360991b6044820152606401610438565b815160011461099d5760405162461bcd60e51b815260206004820152600f60248201526e10db185a5b481b9bdd081d985b1a59608a1b6044820152606401610438565b60208201516001146109e55760405162461bcd60e51b8152602060048201526011602482015270141c995b5a5d5b481b9bdd081d985b1a59607a1b6044820152606401610438565b6040820151600114610a2c5760405162461bcd60e51b815260206004820152601060248201526f14185e5bdd5d081b9bdd081d985b1a5960821b6044820152606401610438565b606082015160038201805460ff191660019081179091555460405163a9059cbb60e01b8152336004820152602481018390526001600160a01b039091169063a9059cbb906044016020604051808303815f875af1158015610a8f573d5f803e3d5ffd5b505050506040513d601f19601f82011682018060405250810190610ab39190610fdb565b610af15760405162461bcd60e51b815260206004820152600f60248201526e151c985b9cd9995c8819985a5b1959608a1b6044820152606401610438565b604080518c81523360208201527fe4abe1ab8756b00aad2bbc65c9de2e144b5299a55da3d1f0ac761195439efbf6910160405180910390a15050505050505050505050565b610b426006600a610fb2565b6102c790600d610fc4565b6001546040516370a0823160e01b81523060048201525f916001600160a01b0316906370a0823190602401602060405180830381865afa158015610b93573d5f803e3d5ffd5b505050506040513d601f19601f82011682018060405250810190610bb791906110de565b90505f8111610bff5760405162461bcd60e51b81526020600482015260146024820152734e6f2066756e647320746f20776974686472617760601b6044820152606401610438565b60015460405163a9059cbb60e01b8152336004820152602481018390526001600160a01b039091169063a9059cbb906044016020604051808303815f875af1158015610c4d573d5f803e3d5ffd5b505050506040513d601f19601f82011682018060405250810190610c719190610fdb565b610caf5760405162461bcd60e51b815260206004820152600f60248201526e15da5d1a191c985dc819985a5b1959608a1b6044820152606401610438565b50565b610cbe6006600a610fb2565b6102c7906003610fc4565b5f8060408385031215610cda575f80fd5b50508035926020909101359150565b5f60208284031215610cf9575f80fd5b5035919050565b634e487b7160e01b5f52604160045260245ffd5b6040805190810167ffffffffffffffff81118282101715610d3757610d37610d00565b60405290565b5f82601f830112610d4c575f80fd5b610d54610d14565b806040840185811115610d65575f80fd5b845b81811015610d7f578035845260209384019301610d67565b509095945050505050565b5f82601f830112610d99575f80fd5b6040516080810181811067ffffffffffffffff82111715610dbc57610dbc610d00565b604052806080840185811115610dd0575f80fd5b845b81811015610dea578035835260209283019201610dd2565b509195945050505050565b5f805f805f805f805f6102208a8c031215610e0e575f80fd5b8935985060208a0135975060408a0135965060608a0135955060808a01359450610e3b8b60a08c01610d3d565b93508a60ff8b0112610e4b575f80fd5b610e53610d14565b806101608c018d811115610e65575f80fd5b60e08d015b81811015610e8c57610e7c8f82610d3d565b8452602090930192604001610e6a565b50819550610e9a8e82610d3d565b9450505050610ead8b6101a08c01610d8a565b90509295985092959850929598565b634e487b7160e01b5f52601160045260245ffd5b600181815b80851115610f0a57815f1904821115610ef057610ef0610ebc565b80851615610efd57918102915b93841c9390800290610ed5565b509250929050565b5f82610f2057506001610fac565b81610f2c57505f610fac565b8160018114610f425760028114610f4c57610f68565b6001915050610fac565b60ff841115610f5d57610f5d610ebc565b50506001821b610fac565b5060208310610133831016604e8410600b8410161715610f8b575081810a610fac565b610f958383610ed0565b805f1904821115610fa857610fa8610ebc565b0290505b92915050565b5f610fbd8383610f12565b9392505050565b8082028115828204841417610fac57610fac610ebc565b5f60208284031215610feb575f80fd5b81518015158114610fbd575f80fd5b5f6001820161100b5761100b610ebc565b5060010190565b805f5b6002811015611034578151845260209384019390910190600101611015565b50505050565b61018081016110498287611012565b6040808301865f5b6002808210611060575061109a565b8251845f5b83811015611083578251825260209283019290910190600101611065565b505050928401925060209190910190600101611051565b505050506110ab60c0830185611012565b6101008201835f5b60048110156110d25781518352602092830192909101906001016110b3565b50505095945050505050565b5f602082840312156110ee575f80fd5b505191905056fea2646970667358221220462d854e4b6d90cde4644e50cbd6f7e6cd5b2e018a871f3b5ab50a4bf1c0185e64736f6c63430008190033","linkReferences":{}},"methodIdentifiers":{"TIER1_PREMIUM()":"78f610d4","TIER2_PREMIUM()":"f66a620d","TIER3_PREMIUM()":"8bc19ad6","TIER4_PREMIUM()":"d35910da","TIER5_PREMIUM()":"09a8deb5","TOKEN_DECIMALS()":"5b7f415c","TOKEN_MULTIPLIER()":"2b093fe9","buyPolicy(bytes32,uint256)":"4e3922a0","claimPayout(uint256,bytes32,bytes32,uint256,uint256,uint256[2],uint256[2][2],uint256[2],uint256[4])":"cefd76c2","getQuote()":"171755b1","nextPolicyId()":"cad0b8db","paymentToken()":"3013ce29","policies(uint256)":"d3e89483","priceMerkleRoot()":"00d06263","priceUpdater()":"fc612a8d","updatePriceMerkleRoot(bytes32)":"4f6b6fb7","withdrawPyUSD()":"eceb7639","zkPriceProtectionVerifier()":"beb75ee7"},"id":17}