{"abi":[{"type":"constructor","inputs":[{"name":"verifierAddress","type":"address","internalType":"address"},{"name":"tokenAddress","type":"address","internalType":"address"}],"stateMutability":"nonpayable"},{"type":"function","name":"TIER1_PREMIUM","inputs":[],"outputs":[{"name":"","type":"uint256","internalType":"uint256"}],"stateMutability":"view"},{"type":"function","name":"TIER2_PREMIUM","inputs":[],"outputs":[{"name":"","type":"uint256","internalType":"uint256"}],"stateMutability":"view"},{"type":"function","name":"TIER3_PREMIUM","inputs":[],"outputs":[{"name":"","type":"uint256","internalType":"uint256"}],"stateMutability":"view"},{"type":"function","name":"TIER4_PREMIUM","inputs":[],"outputs":[{"name":"","type":"uint256","internalType":"uint256"}],"stateMutability":"view"},{"type":"function","name":"TIER5_PREMIUM","inputs":[],"outputs":[{"name":"","type":"uint256","internalType":"uint256"}],"stateMutability":"view"},{"type":"function","name":"TOKEN_DECIMALS","inputs":[],"outputs":[{"name":"","type":"uint256","internalType":"uint256"}],"stateMutability":"view"},{"type":"function","name":"TOKEN_MULTIPLIER","inputs":[],"outputs":[{"name":"","type":"uint256","internalType":"uint256"}],"stateMutability":"view"},{"type":"function","name":"buyPolicy","inputs":[{"name":"secretCommitment","type":"bytes32","internalType":"bytes32"},{"name":"premium","type":"uint256","internalType":"uint256"}],"outputs":[{"name":"policyId","type":"uint256","internalType":"uint256"}],"stateMutability":"nonpayable"},{"type":"function","name":"claimPayout","inputs":[{"name":"policyId","type":"uint256","internalType":"uint256"},{"name":"commitment","type":"bytes32","internalType":"bytes32"},{"name":"merkleRoot","type":"bytes32","internalType":"bytes32"},{"name":"policyStartDate","type":"uint256","internalType":"uint256"},{"name":"paidPremium","type":"uint256","internalType":"uint256"},{"name":"proofA","type":"uint256[2]","internalType":"uint256[2]"},{"name":"proofB","type":"uint256[2][2]","internalType":"uint256[2][2]"},{"name":"proofC","type":"uint256[2]","internalType":"uint256[2]"},{"name":"publicInputs","type":"uint256[4]","internalType":"uint256[4]"}],"outputs":[],"stateMutability":"nonpayable"},{"type":"function","name":"getQuote","inputs":[],"outputs":[{"name":"tier1Premium","type":"uint256","internalType":"uint256"},{"name":"tier2Premium","type":"uint256","internalType":"uint256"},{"name":"tier3Premium","type":"uint256","internalType":"uint256"},{"name":"tier4Premium","type":"uint256","internalType":"uint256"},{"name":"tier5Premium","type":"uint256","internalType":"uint256"}],"stateMutability":"pure"},{"type":"function","name":"nextPolicyId","inputs":[],"outputs":[{"name":"","type":"uint256","internalType":"uint256"}],"stateMutability":"view"},{"type":"function","name":"paymentToken","inputs":[],"outputs":[{"name":"","type":"address","internalType":"contract Token"}],"stateMutability":"view"},{"type":"function","name":"policies","inputs":[{"name":"","type":"uint256","internalType":"uint256"}],"outputs":[{"name":"secretCommitment","type":"bytes32","internalType":"bytes32"},{"name":"policyPurchaseDate","type":"uint256","internalType":"uint256"},{"name":"paidPremium","type":"uint256","internalType":"uint256"},{"name":"alreadyClaimed","type":"bool","internalType":"bool"},{"name":"buyer","type":"address","internalType":"address"}],"stateMutability":"view"},{"type":"function","name":"priceMerkleRoot","inputs":[],"outputs":[{"name":"","type":"bytes32","internalType":"bytes32"}],"stateMutability":"view"},{"type":"function","name":"priceUpdater","inputs":[],"outputs":[{"name":"","type":"address","internalType":"address"}],"stateMutability":"view"},{"type":"function","name":"updatePriceMerkleRoot","inputs":[{"name":"newRoot","type":"bytes32","internalType":"bytes32"}],"outputs":[],"stateMutability":"nonpayable"},{"type":"function","name":"zkPriceProtectionVerifier","inputs":[],"outputs":[{"name":"","type":"address","internalType":"contract Groth16Verifier"}],"stateMutability":"view"},{"type":"event","name":"ClaimPaid","inputs":[{"name":"policyId","type":"uint256","indexed":false,"internalType":"uint256"},{"name":"recipient","type":"address","indexed":false,"internalType":"address"}],"anonymous":false},{"type":"event","name":"MerkleRootUpdated","inputs":[{"name":"newRoot","type":"bytes32","indexed":false,"internalType":"bytes32"}],"anonymous":false},{"type":"event","name":"PolicyBought","inputs":[{"name":"policyId","type":"uint256","indexed":false,"internalType":"uint256"},{"name":"premium","type":"uint256","indexed":false,"internalType":"uint256"},{"name":"buyer","type":"address","indexed":false,"internalType":"address"}],"anonymous":false}],"bytecode":{"object":"0x608060405260016004553480156013575f80fd5b5060405161105e38038061105e8339810160408190526030916089565b5f80546001600160a01b039384166001600160a01b031991821617909155600180549290931691811691909117909155600580549091163317905560b5565b80516001600160a01b03811681146084575f80fd5b919050565b5f80604083850312156099575f80fd5b60a083606f565b915060ac60208401606f565b90509250929050565b610f9c806100c25f395ff3fe608060405234801561000f575f80fd5b5060043610610105575f3560e01c806378f610d41161009e578063cefd76c21161006e578063cefd76c2146101eb578063d35910da146101fe578063d3e8948314610206578063f66a620d14610282578063fc612a8d1461028a575f80fd5b806378f610d4146101c05780638bc19ad6146101c8578063beb75ee7146101d0578063cad0b8db146101e2575f80fd5b80633013ce29116100d95780633013ce29146101655780634e3922a0146101905780634f6b6fb7146101a35780635b7f415c146101b8575f80fd5b8062d062631461010957806309a8deb514610125578063171755b11461012d5780632b093fe91461015d575b5f80fd5b61011260035481565b6040519081526020015b60405180910390f35b61011261029d565b6101356102b7565b604080519586526020860194909452928401919091526060830152608082015260a00161011c565b610112610340565b600154610178906001600160a01b031681565b6040516001600160a01b03909116815260200161011c565b61011261019e366004610b51565b61034c565b6101b66101b1366004610b71565b6105d5565b005b610112600681565b610112610660565b610112610677565b5f54610178906001600160a01b031681565b61011260045481565b6101b66101f9366004610c7d565b61068e565b610112610b23565b61024f610214366004610b71565b600260208190525f918252604090912080546001820154928201546003909201549092919060ff81169061010090046001600160a01b031685565b60408051958652602086019490945292840191909152151560608301526001600160a01b0316608082015260a00161011c565b610112610b3a565b600554610178906001600160a01b031681565b6102a96006600a610e3a565b6102b4906014610e4c565b81565b5f808080806102c86006600a610e3a565b6102d3906001610e4c565b94506102e16006600a610e3a565b6102ec906003610e4c565b93506102fa6006600a610e3a565b610305906007610e4c565b92506103136006600a610e3a565b61031e90600d610e4c565b915061032c6006600a610e3a565b610337906014610e4c565b90509091929394565b6102b46006600a610e3a565b5f6103596006600a610e3a565b610364906001610e4c565b82148061038657506103786006600a610e3a565b610383906003610e4c565b82145b806103a657506103986006600a610e3a565b6103a3906007610e4c565b82145b806103c657506103b86006600a610e3a565b6103c390600d610e4c565b82145b806103e657506103d86006600a610e3a565b6103e3906014610e4c565b82145b61042e5760405162461bcd60e51b815260206004820152601460248201527324b73b30b634b210383932b6b4bab6903a34b2b960611b60448201526064015b60405180910390fd5b6001546040516323b872dd60e01b8152336004820152306024820152604481018490526001600160a01b03909116906323b872dd906064016020604051808303815f875af1158015610482573d5f803e3d5ffd5b505050506040513d601f19601f820116820180604052508101906104a69190610e63565b6104f25760405162461bcd60e51b815260206004820152601760248201527f5072656d69756d207472616e73666572206661696c65640000000000000000006044820152606401610425565b60048054905f61050183610e82565b909155506040805160a0810182528581524260208083019182528284018781525f606080860182815233608088018181528a85526002808852948a9020985189559651600189015593519287019290925590516003909501805494516001600160a01b031661010002610100600160a81b0319961515969096166001600160a81b031990951694909417949094179092558351858152908101879052928301529192507fd826b4efbfc668efaed1046649de593736793dca86cfd96cf23d85586a70642c910160405180910390a192915050565b6005546001600160a01b031633146106255760405162461bcd60e51b815260206004820152601360248201527213db9b1e481bdc9858db1948185b1b1bddd959606a1b6044820152606401610425565b60038190556040518181527f90004c04698bc3322499a575ed3752dd4abf33e0a7294c06a787a0fe01bea9419060200160405180910390a150565b61066c6006600a610e3a565b6102b4906001610e4c565b6106836006600a610e3a565b6102b4906007610e4c565b5f898152600260205260409020600381015461010090046001600160a01b03166106f25760405162461bcd60e51b8152602060048201526015602482015274141bdb1a58de48191bd95cc81b9bdd08195e1a5cdd605a1b6044820152606401610425565b600381015460ff16156107395760405162461bcd60e51b815260206004820152600f60248201526e105b1c9958591e4818db185a5b5959608a1b6044820152606401610425565b600381015461010090046001600160a01b0316331461078c5760405162461bcd60e51b815260206004820152600f60248201526e4e6f7420796f757220706f6c69637960881b6044820152606401610425565b805489146107cf5760405162461bcd60e51b815260206004820152601060248201526f15dc9bdb99c818dbdb5b5a5d1b595b9d60821b6044820152606401610425565b87600354146108145760405162461bcd60e51b815260206004820152601160248201527015dc9bdb99c81b595c9adb19481c9bdbdd607a1b6044820152606401610425565b868160010154146108545760405162461bcd60e51b815260206004820152600a60248201526957726f6e67206461746560b01b6044820152606401610425565b858160020154146108975760405162461bcd60e51b815260206004820152600d60248201526c57726f6e67207072656d69756d60981b6044820152606401610425565b5f54604051635fe8c13b60e01b81526001600160a01b0390911690635fe8c13b906108cc908890889088908890600401610ec2565b602060405180830381865afa1580156108e7573d5f803e3d5ffd5b505050506040513d601f19601f8201168201806040525081019061090b9190610e63565b6109475760405162461bcd60e51b815260206004820152600d60248201526c24b73b30b634b210383937b7b360991b6044820152606401610425565b815160011461098a5760405162461bcd60e51b815260206004820152600f60248201526e10db185a5b481b9bdd081d985b1a59608a1b6044820152606401610425565b60208201516001146109d25760405162461bcd60e51b8152602060048201526011602482015270141c995b5a5d5b481b9bdd081d985b1a59607a1b6044820152606401610425565b6040820151600114610a195760405162461bcd60e51b815260206004820152601060248201526f14185e5bdd5d081b9bdd081d985b1a5960821b6044820152606401610425565b606082015160038201805460ff191660019081179091555460405163a9059cbb60e01b8152336004820152602481018390526001600160a01b039091169063a9059cbb906044016020604051808303815f875af1158015610a7c573d5f803e3d5ffd5b505050506040513d601f19601f82011682018060405250810190610aa09190610e63565b610ade5760405162461bcd60e51b815260206004820152600f60248201526e151c985b9cd9995c8819985a5b1959608a1b6044820152606401610425565b604080518c81523360208201527fe4abe1ab8756b00aad2bbc65c9de2e144b5299a55da3d1f0ac761195439efbf6910160405180910390a15050505050505050505050565b610b2f6006600a610e3a565b6102b490600d610e4c565b610b466006600a610e3a565b6102b4906003610e4c565b5f8060408385031215610b62575f80fd5b50508035926020909101359150565b5f60208284031215610b81575f80fd5b5035919050565b634e487b7160e01b5f52604160045260245ffd5b6040805190810167ffffffffffffffff81118282101715610bbf57610bbf610b88565b60405290565b5f82601f830112610bd4575f80fd5b610bdc610b9c565b806040840185811115610bed575f80fd5b845b81811015610c07578035845260209384019301610bef565b509095945050505050565b5f82601f830112610c21575f80fd5b6040516080810181811067ffffffffffffffff82111715610c4457610c44610b88565b604052806080840185811115610c58575f80fd5b845b81811015610c72578035835260209283019201610c5a565b509195945050505050565b5f805f805f805f805f6102208a8c031215610c96575f80fd5b8935985060208a0135975060408a0135965060608a0135955060808a01359450610cc38b60a08c01610bc5565b93508a60ff8b0112610cd3575f80fd5b610cdb610b9c565b806101608c018d811115610ced575f80fd5b60e08d015b81811015610d1457610d048f82610bc5565b8452602090930192604001610cf2565b50819550610d228e82610bc5565b9450505050610d358b6101a08c01610c12565b90509295985092959850929598565b634e487b7160e01b5f52601160045260245ffd5b600181815b80851115610d9257815f1904821115610d7857610d78610d44565b80851615610d8557918102915b93841c9390800290610d5d565b509250929050565b5f82610da857506001610e34565b81610db457505f610e34565b8160018114610dca5760028114610dd457610df0565b6001915050610e34565b60ff841115610de557610de5610d44565b50506001821b610e34565b5060208310610133831016604e8410600b8410161715610e13575081810a610e34565b610e1d8383610d58565b805f1904821115610e3057610e30610d44565b0290505b92915050565b5f610e458383610d9a565b9392505050565b8082028115828204841417610e3457610e34610d44565b5f60208284031215610e73575f80fd5b81518015158114610e45575f80fd5b5f60018201610e9357610e93610d44565b5060010190565b805f5b6002811015610ebc578151845260209384019390910190600101610e9d565b50505050565b6101808101610ed18287610e9a565b6040808301865f5b6002808210610ee85750610f22565b8251845f5b83811015610f0b578251825260209283019290910190600101610eed565b505050928401925060209190910190600101610ed9565b50505050610f3360c0830185610e9a565b6101008201835f5b6004811015610f5a578151835260209283019290910190600101610f3b565b5050509594505050505056fea2646970667358221220b9f17ebc1c06ddb43122d39ff929f0080995b0a76ed4649aef2cd9f6fc45192764736f6c63430008190033","linkReferences":{}},"methodIdentifiers":{"TIER1_PREMIUM()":"78f610d4","TIER2_PREMIUM()":"f66a620d","TIER3_PREMIUM()":"8bc19ad6","TIER4_PREMIUM()":"d35910da","TIER5_PREMIUM()":"09a8deb5","TOKEN_DECIMALS()":"5b7f415c","TOKEN_MULTIPLIER()":"2b093fe9","buyPolicy(bytes32,uint256)":"4e3922a0","claimPayout(uint256,bytes32,bytes32,uint256,uint256,uint256[2],uint256[2][2],uint256[2],uint256[4])":"cefd76c2","getQuote()":"171755b1","nextPolicyId()":"cad0b8db","paymentToken()":"3013ce29","policies(uint256)":"d3e89483","priceMerkleRoot()":"00d06263","priceUpdater()":"fc612a8d","updatePriceMerkleRoot(bytes32)":"4f6b6fb7","zkPriceProtectionVerifier()":"beb75ee7"},"id":16}